:020000040800F2
:10000000C0070020CD0100087B1A0008EB1500088E
:10001000791A000867050008551C00080000000058
:100020000000000000000000000000007F1A00082F
:1000300069050008000000007D1A0008811A000808
:10004000E7010008E7010008E7010008E7010008F0
:10005000E7010008E7010008E7010008E7010008E0
:10006000E7010008E7010008E7010008E7010008D0
:10007000E7010008E7010008E7010008E7010008C0
:10008000E7010008E7010008E701000800000000A0
:10009000000000000000000000000000E701000870
:1000A000E7010008E7010008E7010008E701000890
:1000B000E7010008E7010008E7010008E701000880
:1000C000E7010008E7010008E7010008E701000870
:1000D000E7010008E7010008E7010008E701000860
:1000E000E7010008E7010008E70100080000000040
:1000F0000000000000000000000000000000000000
:1001000000000000000000000000000000000000EF
:100110000000000000000000E7010008E7010008FF
:1001200000F002F800F042F80AA090E8000C8244C7
:100130008344AAF10107DA4501D100F037F8AFF2A4
:10014000090EBAE80F0013F0010F18BFFB1A43F0B5
:10015000010318472C2400004C240000103A24BF4F
:1001600078C878C1FAD8520724BF30C830C144BF1C
:1001700004680C607047000000230024002500265E
:10018000103A28BF78C1FBD8520728BF30C148BFFA
:100190000B607047642900F09B80782900F0D480C0
:1001A000002070471FB51FBD10B510BD00F0A1F9AC
:1001B0001146FFF7F7FF02F0D1F800F0BFF903B4E2
:1001C000FFF7F2FF03BC00F0C7F9000009488047C1
:1001D00009480047FEE7FEE7FEE7FEE7FEE7FEE729
:1001E000FEE7FEE7FEE7FEE704480549054A064B41
:1001F00070470000D11A000821010008C00100204A
:10020000C0070020C0030020C00300200FB41CB5AD
:10021000074B06AA7B4469460090059800F049F90F
:100220000020694600F058F91CBC5DF814FB000082
:10023000C10200000FB41CB50C0007AA009001D049
:100240002044401E074B7B4469460190069800F00D
:1002500030F9002C03D06946002000F03DF91CBCA9
:100260005DF814FB990200002DE9F0410E460446AA
:10027000002020622046E168884730B3252805D059
:10028000D4E901219047206A401CF2E7E16820464A
:1002900000278847050018D0A5F14100192802D889
:1002A00020354FF400673246294620462760FFF785
:1002B00071FF40B1012804D0F61D26F0070608366C
:1002C000D8E7361DD6E72846DAE7206ABDE8F08190
:1002D0002DE9F0410646002410687529314616A51F
:1002E00010D0AFF30080002802DA404213A507E0E7
:1002F00031688A0701D512A502E0490704D511A586
:10030000012401E0AFF3008000210A2206F1240756
:1003100009E0B0FBF2FCB0FBF2F302FB1C00303052
:1003200078541846491C0028F3D123462A46304603
:10033000BDE8F04100F05EB8000000002D000000B4
:100340002B0000002000000070B504460D46214639
:100350001068AFF300802188090502D50F4A7A445E
:1003600002E00E4A7A440E32002104F1240305E033
:1003700000F00F060009965D5E54491C0028F7D175
:1003800020780023000704D5702D02D009B1022384
:1003900011322046BDE8704000F02CB8F621000074
:1003A0004FF0000200B5134694469646203922BF0E
:1003B000A0E80C50A0E80C50B1F12001BFF4F7AF59
:1003C000090728BFA0E80C5048BF0CC05DF804EB3B
:1003D000890028BF40F8042B08BF704748BF20F8A9
:1003E000022B11F0804F18BF00F8012B70477047A7
:1003F000704770472DE9F0470D46994692460446EE
:1004000000F124080168880604D5E06921F0100194
:10041000216000E00120A84201DD471B00E0002729
:10042000A1697A1902EB0900081AA0612078C006B8
:1004300002D42046AFF30080002608E0D4E9012171
:100440001AF806009047206A401C761C20624E4530
:10045000F4DB2078C0060AD52046AFF3008006E022
:10046000D4E9012130209047206A401C2062381EC8
:10047000A7F10107F4DC07E0D4E9012118F8050031
:100480009047206A401C2062281EA5F10105F3DC7C
:100490002046AFF300802078000602D50220BDE898
:1004A000F0870120FBE7000001694A1C026108781F
:1004B000704700B58FB0CDE90131002105910549A4
:1004C0007944CDE9031011466846FFF7CDFE0FB021
:1004D00000BD0000E5FFFFFF0A6802F8010B0A609B
:1004E0007047D1E900239A4202D2531C0B6010706E
:1004F0007047754600F02CF8AE4605006946534635
:1005000020F00700854618B020B5FFF76DFEBDE866
:1005100020404FF000064FF000074FF000084FF06A
:10052000000B21F00701AC46ACE8C009ACE8C009FB
:10053000ACE8C009ACE8C0098D46704710B5044668
:10054000AFF300802046BDE81040FFF738BE000042
:10055000004870475C01002001491820ABBEFEE74F
:10056000260002007047FEE77047000072B6642361
:1005700003491A46A1F1440000F0DEFFFEE7000047
:10058000A800002070B5044600F004F90546601C80
:1005900002D004480078044400F0FCF8401BA0425C
:1005A000FAD370BD000000202DE9F84FDFF8B891B4
:1005B000002409F1040A0AF1040B23460F270BF16A
:1005C000040EC9E00125A5402A40AA427DD1674E0C
:1005D000D1F804C0ACEB0608B44532D014DCBCF151
:1005E000030F3AD009DCBCF1000F2AD0BCF1010F97
:1005F0001CD0BCF1020F31D11DE0BCF1110F17D09E
:10060000BCF1120F2AD119E0B8F5881F19D006DC09
:10061000B8F5803F15D0B8F5801F1FD111E0B8F5AF
:10062000001F0ED0B8F5041F18D10AE0CB6815E002
:10063000CB681B1D12E0CB6808330FE0CB680C338E
:100640000CE08B682BB1012B4FF0080303D0456100
:1006500004E0042302E0056100E00023FF2A01D842
:10066000064601E000F104064FEA840501D9A5F130
:100670002005D6F8008007FA05FC28EA0C0803FAE2
:1006800005F548EA0508C6F800804D68ED0062D51A
:10069000374DAE6946F00106AE61AD6924F0030640
:1006A00005F001050095334D06EB050CDCF808500C
:1006B000A607360F07FA06F825EA0805DFF8B8801E
:1006C000404503D14FF0000817E044E0DFF8AC806C
:1006D000404502D14FF001080FE0DFF8A48040450B
:1006E00002D14FF0020808E0DFF89880404502D1BF
:1006F0004FF0030801E04FF0040808FA06F848EA52
:100700000508CCF808804D68D9F80060ED034D4627
:1007100001D5164300E096432E604D68DAF800607C
:10072000AD03554601D5164300E096432E604D6853
:10073000DBF80060ED025D4601D5164300E096430C
:100740002E604D68DEF80060AD02754601D5164397
:1007500000E096432E60641C0D682A46E5407FF455
:1007600031AFBDE8F88F0000000401400000111017
:10077000001002400000014000080140000C014050
:1007800000100140001401400AB1016170470904E2
:10079000FBE700000148806870470000000000206F
:1007A00070B5040025D094F83D00002520B984F8E8
:1007B0003C50204600F02EFB242084F83D002068A9
:1007C000016821F0010101602068016841F40041E5
:1007D00001602068016821F40041016000F040FCE4
:1007E0004D4A6168914201D84C4900E04C49884229
:1007F00001D2012070BD4B492368B0FBF1F15E6866
:1008000026F03F060E435E606368934206D94FF4BC
:10081000967359434FF47A73B1FBF3F12368491C83
:100820001E6A26F03F06314319626168914210D872
:100830004900401EB0FBF1F2521CC2F30B02042A25
:1008400001D2042022E0B0FBF1F0401CC0F30B0009
:100850001CE0A268F2B301EBC10303EB0116431ED7
:10086000B3FBF6F35B1C43F480431B0549D092B302
:1008700001EBC10202EB0111401EB0FBF1F0401C84
:10088000C0F30B0040F4804040F400402168CA6986
:100890004CF6FF739A431043C861D4E90710014333
:1008A0002068026822F0C00211430160D4E903010C
:1008B00001432068826848F2FF339A431143816004
:1008C000D4E9050108432168CA6822F0FF021043F9
:1008D000C86001E00EE016E02068016841F0010107
:1008E00001602564202084F83D00256384F83E5093
:1008F000002070BD01EB4106431EB3FBF6F35B1C09
:10090000B3E70120C2E701EB4101401EB0FBF1F06B
:10091000401CC0F30B00B7E7A086010080841E00D6
:1009200000093D0040420F002DE9FF4F81B089468C
:100930000446FFF72FFF054694F83D004FF00108ED
:1009400020287DD11923012250492046009500F02E
:100950005DFF002874D194F83C00012870D001207C
:1009600084F83C0020680168C90703D1016841F0A0
:10097000010101602068016821F400610160242008
:1009800084F83D00002626644148E0624FF0011BD8
:1009900020272068016841F48071016000950022E1
:1009A00059462046049B00F031FF50B12068006892
:1009B000C00502D54FF400702064032005B0BDE8E7
:1009C000F08F216809F0FE000861FFF7E3FE21685F
:1009D000054648694969C0F34000C1F380214FF0E2
:1009E000A00A0FE0FFF7D6FE411B0498814200D811
:1009F00008B984F83DA0216848694969C0F34000FE
:100A0000C1F3802194F83D20A02A02D008B9002922
:100A1000E8D084F83D7020684169C943890716D43D
:100A2000016841F4007101602068416980691923FF
:100A3000012216492046009500F0E8FEB8B900E012
:100A400021E084F83D7084F83C600020B6E701683E
:100A500041F40071016021686FF4806048611923DE
:100A600001220A492046009500F0D0FE08B101207D
:100A7000A4E7039808F1010880458AD384F83D7003
:100A800084F83C60F3E7022098E7000002001000C1
:100A90000000FFFF2DE9FF4F83B00025DDE910794D
:100AA0009A4693460446DDF848800095FFF772FEAB
:100AB000064694F83D0020287CD11923012285495F
:100AC0002046009600F0A2FE0028F5D194F83C00E4
:100AD00001286FD0012084F83C0020680168C90714
:100AE00003D1016841F0010101602068016821F42F
:100AF00000610160222084F83D00402084F83E001F
:100B000025646762A4F82A90608D20857248E062AF
:100B1000CDE9008653465A462046049900F07EFDF2
:100B200000287DD1208DDFF8B491202768B10128FD
:100B300014D00228206801681ED041F48061016051
:100B40002068416980690090B6E020684169816948
:100B50000091016841F400710160ADE02068016816
:100B600021F48061016072B6206841698169009159
:100B7000016841F400710AE041F40061016072B65D
:100B80002068416981690091016821F480610160F8
:100B900062B691E0032868D801280CD002284346A9
:100BA0004FF000024946204600960FD000F02EFE7E
:100BB000B0BB10E08BE032464146204600F0A5FE77
:100BC00070BB20680069616A08706CE000F01EFE6E
:100BD00030BB72B634E02068016821F480610160A6
:100BE00072B620680069616A0870606A401C6062C1
:100BF000208D401E2085608D401E6085384846F25D
:100C0000A8110068B0FBF1F0C0EBC00000EB800061
:100C10000090401E009008D020684069C04300E06A
:100C200029E040070CD50098F3E744F8305F67737C
:100C3000A573206940F02000206162B625731AE098
:100C40002068016841F40071016020680069616AF0
:100C50000870606A401C6062218D491E2185618D8B
:100C6000491E618562B621681BE032464146204636
:100C700000F04BFE18B1012007B0BDE8F08F2068EE
:100C80000069616A0870606A401C6062218D491EBB
:100C90002185618D491E618521684A69D2435207C9
:100CA0000AD409690170606A401C6062208D401E90
:100CB0002085608D401E6085208D00287FF46AAFFE
:100CC00084F83D7084F83E5084F83C50D4E702200C
:100CD000D2E70000020010000000FFFF0400010046
:100CE0000C0000202DE9FF4F83B09A46DDE91197F3
:100CF00093460446DDF84080FFF74CFD054694F826
:100D00003D0020287FD1192301224049204600952B
:100D100000F07CFD002876D194F83C00012872D0C8
:100D2000012084F83C0020680168C90703D10168EC
:100D300041F0010101602068016821F40061016057
:100D4000212084F83D00402084F83E0000262664DF
:100D5000C4F82480A4F82A90608D20852C48E06295
:100D6000CDE9007553465A462046049900F0D4FC5C
:100D700070B930E02A463946204600F0F9FD58B1F6
:100D8000206C042804D12068016841F400710160DE
:100D9000012007B0BDE8F08F606A21680078086123
:100DA000606A401C6062218D491E89B22185628D76
:100DB000521E628522685369DB435B070BD469B11D
:100DC00000781061606A401C6062208D401E2085A2
:100DD000608D401E6085208D0028CBD12A46394683
:100DE000204600F0EDFC0028CAD154F83D0B016804
:100DF00041F400710160202004F81E09E67766774F
:100E00000020C6E7FFE70220C3E700000200100051
:100E10000000FFFF10B586B0002100910191029102
:100E2000039100680F4988421AD10F4CA06940F025
:100E30000800A061A069694600F008000490C02085
:100E4000009012200190032003900848FFF7ACFBAC
:100E5000E06940F40010E061E06900F400100490E3
:100E600006B010BD0054004000100240000C0140CC
:100E700002488168027811448160704700000020B8
:100E800010B5032000F066F8002000F005F800F02F
:100E900023F8002010BD000070B50D4D04464FF43E
:100EA0007A712878B1FBF0F00A490968B1FBF0F0DB
:100EB00000F0C4FA48B9102C07D200222146501E77
:100EC00000F028F800206C6070BD012070BD0000AB
:100ED000000000200C0000200C4808B5816941F09A
:100EE00001018161816901F001010091C16941F055
:100EF0008051C161C06900F0805000900448416891
:100F000021F0E06141F00071416008BD0010024035
:100F100000000140F0B40E4B1B680C46C3F30223E3
:100F2000C3F10705042D00D90425191D072901D295
:100F3000002300E0DB1E012606FA05F1491E2140D0
:100F400099409E40761E16403143F0BC00F083BEAF
:100F50000CED00E0064900F0070208684FF6FF03B9
:100F6000184040EA0220034A10430860704700001E
:100F70000CED00E00000FA052DE9F041050027D056
:100F80002868334C810712D5400703D5606840F4C8
:100F9000E06060602878000703D5606840F4605026
:100FA00060606068A96820F0F000084360602878FD
:100FB000C00729D06868012804D02168022804D01D
:100FC000890703E02168890300E08901002902DB29
:100FD0000120BDE8F081616821F0030101436160F7
:100FE000FFF7D8FB064641F2883706E0FFF7D2FB51
:100FF000801BB84201D90320EBE76068696800F004
:101000000C00B0EB810FF1D12878400705D560685E
:10101000E96820F4E060084360602878000706D59E
:101020006068296920F4605040EAC100606000F007
:1010300037F86168074AC1F30311515CC84006499B
:10104000086006480068FFF727FF0020C1E700009E
:1010500000100240402500080C0000200400002081
:101060000448054900684968044AC1F30221515CFB
:10107000C84070470C0000200010024050250008B6
:101080000448054900684968044AC1F3C221515C1B
:10109000C84070470C000020001002405025000896
:1010A00013A188B00FC98DE80F0015A10DF1100C28
:1010B0000FC98CE80F00164A5168164801F00C035E
:1010C000042B10D0082B0ED1C1F38343C9031DF8A4
:1010D00003000AD5D16A04AA01F00F01515C0D4A40
:1010E0005043B0FBF1F008B070470B494843FAE7B2
:1010F00002030405060708090A0B0C0D0E0F101059
:101100000102030405060708090A0B0C0D0E0F1057
:101110000010024000127A0000093D002DE9F84F4E
:10112000040070D02078C04DC00749D06868C0F373
:101130008100012807D06868C0F38100022809D126
:101140006868C00306D52868800339D56068002820
:10115000E7D035E06068B0F5803F0BD010B1B0F556
:10116000A02F11D0286820F480302860286820F44F
:10117000802002E0286840F480302860606890B1E8
:10118000FFF708FB06460AE0286840F48020286044
:10119000F0E700BFFFF7FEFA801B642873D82868C9
:1011A0008003F7D50CE0FFF7F5FA064605E000BF2F
:1011B000FFF7F0FA801B6428F0D828688003F7D482
:1011C00020789A4E80074FF001094FF0000839D57A
:1011D000686810F00C0F07D06868C0F3810002281F
:1011E00009D16868C00306D42868800714D520692F
:1011F000012808D110E02069B0B1C6F80090FFF7CF
:10120000C9FA074605E00AE1FFF7C4FAC01B022845
:10121000C4D828688007F7D52868616920F0F800ED
:1012200040EAC10028600DE0C6F80080FFF7B2FA7E
:10123000074604E0FFF7AEFAC01B022823D828684F
:101240008007F7D4207800072CD57948A169D9B157
:10125000C0F80090FFF79EFA074604E0FFF79AFAFD
:10126000C01B02280FD8686A8007F7D571484FF471
:10127000FA510068B0FBF1F0009000BF0098411EE9
:101280000091FAD20EE080E0C0F80080FFF782FA09
:10129000074604E0FFF77EFAC01B022875D8686A8B
:1012A0008007F7D42078400760D5E8690027C000A0
:1012B00008D4E86940F08050E861E869012700F04F
:1012C000805000905C480168C90513D401688346CA
:1012D00041F480710160FFF75DFA824606E000BFCD
:1012E000FFF758FAA0EB0A0064284ED8DBF800009C
:1012F000C005F5D5E06801280AD008B1052813D04B
:10130000286A20F001002862286A20F0040002E028
:10131000286A40F001002862E06841F2883B98B1F9
:10132000FFF738FA82460BE0286A40F00400286292
:10133000EEE700BFFFF72EFAA0EB0A0159455AD895
:10134000286A8007F6D50CE0FFF724FA824605E00C
:10135000FFF720FAA0EB0A0159454CD8286A80070C
:10136000F6D41FB1E86920F08050E861E06988B3E5
:101370006968C1F38101022944D00228C6F860805F
:1013800004D0FFF707FA044638E034E0FFF702FA2A
:10139000074604E0FFF7FEF9C01B02282BD8286897
:1013A0008001F7D4206AB0F5803F05D1E86AA168D2
:1013B00020F00F000843E862D4E908010843696897
:1013C00021F4741108436860C6F86090FFF7E2F9F1
:1013D000044606E025E000BFFFF7DCF9001B022809
:1013E00009D828688001F7D51BE000BFFFF7D2F9C4
:1013F000001B022802D90320BDE8F88F286880016D
:10140000F4D40EE00128F7D06868226A00F4803135
:10141000914204D1616A00F47010884201D0012029
:10142000EAE70020E8E70000001002400000424226
:10143000800442420C0000200070004010B5401EA5
:10144000B0F1807F01D3012010BD4FF0E024606136
:101450000F21601700F0FFFB0020A0610720206132
:10146000002010BD70B5040004D094F83D000025A4
:1014700010B106E0012070BD84F83C50204600F019
:1014800023F8242084F83D002068C16821F400512D
:10149000C160204600F01EFB2068016921F49041E4
:1014A00001612068416921F02A0141612068C16819
:1014B00041F40051C1602564202084F83D0084F887
:1014C0003E00002070BD000030B585B000240094BF
:1014D00001940294039400681449884224D114486A
:1014E000816941F480418161816901F48041049105
:1014F000816941F00401816180690E4D00F00400B2
:1015000004904FF40070009002200190032003909B
:1015100069462846FFF748F82815CDE900046946D2
:1015200028460294FFF740F805B030BD003801406E
:1015300000100240000801402DE9F843044690F8ED
:101540003D001F4616460D4620284CD1C5B1BEB100
:1015500094F83C00012846D0012084F83C004FF06C
:101560000008C4F84080212084F83D00FFF712F9FC
:10157000A6848146E684A068B0F5805F03D004E0CD
:101580000120BDE8F883206928B12E465FF00005F0
:1015900084F83C800EE00026FAE78021204600F027
:1015A00027FBA0B9AEB116F8010B21684860E08CAA
:1015B000401EE084E08C4B464FF00002009700286C
:1015C000EBD14FF04001204600F012FB30B1032078
:1015D000D7E735F8020BC0F30800E6E7202084F8CF
:1015E0003D000020CDE70220CBE7FEE701684A6915
:1015F000D24352050FD46FF480624A61002140F853
:10160000301F202242738173026942F0040202619A
:101610000173012070470020704700002DE9F84F4A
:101620000446006889460B9D01689846174641F4B8
:10163000806101602068016841F48071016000955B
:101640004FF0011B0022594620460A9B00F0DEF8AD
:101650004FF4007A40B120680068C00501D5C4F895
:1016600040A00320BDE8F88F216809F0FE00086162
:101670002B46284920460A9A00F0FCF8F0BB206867
:101680004169806900902A4620460A9900F070F965
:1016900040B1206C04283AD12068016841F40071FF
:1016A000016034E0FEB2B8F1010F09D02168380AB8
:1016B00008612A4620460A9900F05AF90028E8D124
:1016C000206806612A4620460A9900F051F9002850
:1016D000DFD12068016841F480710160009500222B
:1016E000594620460A9B00F091F80028B3D12168A2
:1016F00009F0FF0040F00100086100E007E02B4620
:10170000044920460A9A00F0B5F80028AAD0012022
:10171000A8E70000020001002DE9F8430446006834
:101720000D46DDE9089701689846164641F4807138
:1017300001604B4600224FF001112046009700F057
:1017400065F848B120680068C00502D54FF4007004
:1017500020640320BDE8F883216805F0FE000861DD
:101760003B464A461549204600F084F888B920686F
:101770004169806900903A464946204600F0F8F8F1
:1017800048B1206C042804D12068016841F400713C
:1017900001600120DEE7F5B2B8F1010F09D0216840
:1017A000300A08613A464946204600F0E1F8002830
:1017B000E7D1206805610020CCE7000002000100AD
:1017C00070B516460D4604460DE02046FFF70EFFA5
:1017D00008B1012070BD681C05D0FEF7DBFF801B3F
:1017E000A84207D835B120684069C0434007ECD40F
:1017F000002070BD002044F8300F20216173A073D9
:10180000216941F0200121612073E2E72DE9F047D1
:101810001E4690460D460446C1F30747DDF820906A
:1018200008E0701C06D0FEF7B5FFA0EB0900B0423F
:101830000FD876B12068012F18D0806925EA000002
:101840000004000C14D000214145EAD00020BDE87E
:10185000F087002044F8300F20216173A0732169C4
:1018600041F02001216120730120F0E74069E5E7A4
:101870000121E9E72DE9F0479A4691460E460446D4
:1018800000254FF02008C1F3074725E02068406994
:10189000C043400514D42068016841F40071016020
:1018A00021686FF480604861256384F83D8084F886
:1018B0003E50206C40F00400206484F83C501FE04F
:1018C000B9F1FF3F08D0FEF765FFA0EB0A014945DB
:1018D0000CD8B9F1000F09D02068012F13D080690E
:1018E00026EA00000004000C0BD0CFE744F8305F7C
:1018F00084F80D80A573206940F0200020612573D5
:101900000120BDE8F0874069EAE72DE9F0410025B4
:1019100090460E460446202717E04069C043C006A3
:101920000CD454F8301B6FF01000486144F8105983
:101930006777A577206A2062257717E0FEF72AFFF0
:10194000A0EB0800B04208D83EB120684169C94305
:101950004906E2D40020BDE8F08144F8305F6773A7
:10196000A573206940F02000206125730120F2E773
:1019700070B516460D4604460DE02046FFF736FECC
:1019800008B1012070BD681C05D0FEF703FF801B65
:10199000A84207D835B120684069C0430006ECD49E
:1019A000002070BD002044F8300F20216173A07327
:1019B000216941F0200121612073E2E770B586B012
:1019C00000241C480094019402940394816941F01E
:1019D00010018161816901F010010491816941F078
:1019E00020018161816901F020010491816941F048
:1019F00004018161816901F004010491816941F070
:101A00000801816180690C4E00F008004FF44075B8
:101A10000490002229463046FEF7B6FE01200095CC
:101A2000CDE901040220039069463046FEF7BCFD73
:101A300006B070BD00100240001001400C4810B507
:101A40000A4901600B49416000214FF480428160E6
:101A5000C0E9031241618161C1610162FEF7A0FE2C
:101A6000002801D0FEF782FD10BD000000540040A8
:101A700010000020A0860100FEE7FEE770477047D7
:101A8000FFF7F6B910B590B028216846FEF788FC3C
:101A900014210AA8FEF784FC022000900120049083
:101AA00010200024059007946846FFF737FB58B9CB
:101AB0000F20CDE90A040C940D9400210AA80E947D
:101AC000FFF75AFA002801D0FEF750FD10B010BD04
:101AD000704700002DE9F041044600680169E268A2
:101AE00021F44051114301612169A068E269084372
:101AF0006169114322680843D16849F20C63994334
:101B00000143D16020684169A26921F44071114309
:101B1000416136492068884202D1FFF7B1FA01E0FD
:101B2000FFF79EFA0246E36964203221B3F5004FC5
:101B300002EBC20303EB021362682BD09200B3FBEB
:101B4000F2F5B5FBF0F5B3FBF2F66FF018077D4345
:101B500006EB8505B3FBF2F601EB0515B5FBF0F5D9
:101B6000B6FBF0F605F0F00505EB0615B3FBF2F653
:101B7000B3FBF2F2B2FBF0F27A4306EB820201EB26
:101B80000211B1FBF0F000F00F00216828448860DA
:101B9000BDE8F0815200B3FBF2F6B6FBF0F6B3FB02
:101BA000F2F7B3FBF2F56FF0180C06FB0CF607EB3F
:101BB000860601EBC606B5FBF0F5B6FBF0F62D0187
:101BC00006F0F80605EB4605B3FBF2F6B3FBF2F2BE
:101BD000B2FBF0F202FB0CF206EB820201EBC20157
:101BE000B1FBF0F000F00700CFE700000038014043
:101BF0002DE9F041984617460E460446069D1DE025
:101C0000681C1BD02DB1FEF7C5FDA0EB0800A84253
:101C100014D92068C16821F4D071C160206841697D
:101C200021F001014161202084F83D0084F83E004C
:101C3000002084F83C000320BDE8F08120680068A3
:101C400036EA000004D00020B842D9D00020F3E7E3
:101C50000120F9E7FEE70907090E002804DB00F17F
:101C6000E02080F80014704700F00F0000F1E02041
:101C700080F8141D70473EB52BB1DC691CB12AB148
:101C80009D7835B107E04FF0FF303EBD6FF00B009F
:101C90003EBD40F0800064258DE826005978DD6A5D
:101CA0004900024601232846A04740B23EBDF0B499
:101CB0001446024602F007020020950802F00306CF
:101CC00000D003204FF0FF32CBB1012E06D0022E00
:101CD00009D0032E0DD0101FF0BC704779B1F0BCB5
:101CE0001A4600F0EEB954B12146F0BC1A4600F095
:101CF0006EBA24B119B12246F0BC00F017BA1046F2
:101D0000EAE738B50446032500F0E0FB00281ED1C1
:101D1000A17839B92346012269467F20FFF7ABFF3E
:101D2000002814D10021217005E023460122194624
:101D30000020FFF7A0FF6D1EEDB202D32178D1295C
:101D4000F3D110B92078D12802D06FF0020038BD4D
:101D5000FF20E070204600F014F938BDF8B504000B
:101D600015D0606A98B100208DF8000020796FF0DE
:101D70000C05A0F11001022928D8217A88421AD036
:101D80002146684600F0AEFB060003D011E04FF09C
:101D9000FF30F8BD23460122211D7E2000F035F8DA
:101DA0000646207A102802D1616A052088472179E9
:101DB00021723000EDD1207B0026142808D0152890
:101DC00006D0172804D02E463046F8BD2846F8BD68
:101DD000217C8842F8D02346012204F10C017E20A8
:101DE00000F013F80646207C142802D0172803D0F0
:101DF00008E05020616A04E0207B152802D1616A66
:101E00000A208847207B2074DEE72DE9FE4F4FF043
:101E100000051C009046894606462F460AD0D4F895
:101E200020C0BCF1000F05D0B8F1000F05D0A0789C
:101E300030B107E04FF0FF3533E06FF00B0530E0D5
:101E400006F07F06207A4FF0640A112802D0207C29
:101E5000152821D1CDE90098CDF808A06078324648
:101E600041000123E06AE04745B2616A05208847E6
:101E700014E009EB07028DE804056078256A41004B
:101E800001233246E06AA847761C45B2616AB6B2C1
:101E9000012088477F1CFFB24745EAD30DB16FF0A0
:101EA00001052846BDE8FE8F38B504005DD0606AA4
:101EB00000285AD0002521466846009500F090F889
:101EC000002851D12346012269464020FFF79DFF9B
:101ED000002849D161796172E179E17223460122DA
:101EE00041200DF10101FFF790FF00283CD1A179BD
:101EF000A17221466846009500F0ACF8002833D165
:101F00002346012269464220FFF77FFF00282BD19C
:101F1000617B6174E17BE1742346012243200DF172
:101F20000101FFF772FF00281ED1A17B2046A1749A
:101F3000FFF714FF002817D123468DF80050012227
:101F400069460220FFF797FE9DF80010C1F3430198
:101F50008DF8001001290BD002290CD003290DD0D7
:101F6000072901D16FF0080038BD4FF0FF3038BDB0
:101F70006FF0050038BD6FF0060038BD6FF0070048
:101F800038BD38B504004FF0B6004FF000058DF8AD
:101F9000000006D0616A21B101208847A07818B1FD
:101FA0000AE04FF0FF3519E02346012269467F2001
:101FB000FFF761FE050011D10220E0710821617177
:101FC000102222710322A271E07361731420207326
:101FD0000020A0736068A060E0682061284638BDDA
:101FE00070B50D460B460446014602224020FFF71D
:101FF00042FE00282DD16979001F0C2929D86A7A60
:10200000914206D0227801F00F0122F00F02114315
:102010002170E97907291CD8EA7A914207D0227801
:10202000702322F0700203EA011111432170A97993
:102030000022641C0C290AD8A87A814208D0207892
:1020400001F00F0120F00F000143217000E0024673
:10205000104670BD70B50D460B460446014602227F
:102060004220FFF708FE00282AD1697B001F0D29B6
:1020700026D86A7C914206D0227801F00F0122F026
:102080000F0211432170E97B022919D822783023ED
:1020900022F0300203EA0111114304F8011BA97B6D
:1020A000002204290AD8A87C814208D0207801F0B7
:1020B000070120F007000143217000E002461046AE
:1020C00070BDFEB5002613460C460546821D0096DF
:1020D0000196694612200296FFF7CDFD08B1B01EA9
:1020E000FEBD9DF800109DF80120032D41EA02215C
:1020F00021809DF802209DF8031042EA01216180B1
:102100009DF804109DF8052041EA0221A18001D02C
:10211000A660FEBD9DF807109DF806300A029DF8E6
:10212000081042EA01411943A160FEBD2DE9FF41BB
:10213000002714460D46064600F10C020097019751
:10214000029769460C200397FFF795FD18B1B81E5A
:1021500004B0BDE8F0819DF800109DF80120032E29
:1021600041EA022121809DF802209DF8031042EAF5
:10217000012161809DF804109DF8052041EA0221AB
:10218000A1809DF806109DF8072041EA02212980D0
:102190009DF808109DF8092041EA022169809DF808
:1021A0000A109DF80B2041EA0221A98002D0AF60FD
:1021B000A760CDE79DF80D109DF80C300A029DF840
:1021C0000E1042EA01411943A960A160C0E77FB542
:1021D00000260C46009601960296B51E13460396FD
:1021E00038B100F10C0269460C20FFF744FD00B342
:1021F00005E0062269460C20FFF73DFD10B1284698
:1022000004B070BD9DF800109DF8012041EA022144
:1022100021809DF802109DF8032041EA022161808F
:102220009DF804209DF8051042EA0121A180A660D6
:10223000E6E79DF800109DF8012041EA0221218087
:102240009DF802209DF8031042EA012161809DF86B
:1022500004209DF8051042EA0121A1809DF80D108F
:102260009DF80C300A029DF80E1042EA0141194314
:10227000A160C5E710B51F48FFF743FD020001D07C
:102280001DA12FE01B4822A16438FDF7BFFF1949AB
:10229000642364391A46A1F14400FFF74DF9154C47
:1022A00024A1A4F164002278FDF7B0FF6423A4F117
:1022B00064011A46A1F14400FFF73EF9072060715E
:1022C0000521A1710221E1711122227160730420A4
:1022D000A073E173152020732046FFF7E5FD02008F
:1022E00006D018A103486438FDF790FFFEF73EF9C9
:1022F00010BD00000C010020626D693136305F694D
:102300006E6974206572726F722025640A00000085
:10231000424D4931363020696E697469616C697A61
:102320006174696F6E207375636365737320210A2E
:102330000000000043686970204944203078255827
:102340000A000000626D6931363020434F4E464925
:1023500047206572726F722025640A0086B0FEF70E
:102360008FFDFFF78FFBFFF729FBFFF767FB3E4C65
:102370003C480C2120604FF4E13060600020A060F8
:10238000E060C4E90401A061E0612046FFF76AF85B
:1023900010B100BFFEF7EAF83348002533A14430FE
:1023A000FDF734FF304964231A4644312E48FFF7C5
:1023B000C3F86420FEF7E6F82B486B1E4022D021BC
:1023C0005438FEF7B1FA28B127482CA14430FDF764
:1023D0001DFFDFE72449543901F1FC00C1622D499A
:1023E000C0E90C142C4901622C49C1612C4941629D
:1023F0006821417001218170FFF73CFF1A4E4FF4B4
:10240000FA77EC36A6F10C04174B0320A83303F13E
:102410004402A2F10C01FFF74AFCB4F904000DF1EB
:10242000040CB6F90430B6F90220B6F900108CE8B5
:102430000F00B4F9020000900B48B4F9003019A263
:1024400064214430FDF7F6FE074964231A464431FF
:102450000548FFF771F86420FEF794F86D1CBD4243
:10246000D2DBFEE700380140640000207374617223
:1024700074696E672E2E20210A000000446576697B
:102480006365206E6F742072656164792020210A73
:102490000000000039150008E50C0008950A000846
:1024A0008505000861783A25642061793A25642021
:1024B000617A3A25642067783A25642067793A255D
:1024C0006420677A3A25640A0000000038B1C169C7
:1024D00029B1016A19B1406A08B1002070474FF074
:1024E000FF30704738B5044600200D460B4600907B
:1024F000012221464020FFF7BEFB00280ED129799A
:1025000012290CD021780A0608D521F0800020700D
:102510002B46012221464020FFF777FC38BD20786A
:102520002B4640F080002070012221464020FFF71A
:102530006CFC0028F2D102222B4669465820EBE7BA
:102540000000000000000000010203040607080963
:1025500000000000010203043031323334353637D5
:1025600038394142434445464030580030313233D7
:1025700034353637383961626364656640307800D7
:10258000A025000800000020100000005C010008E9
:10259000B025000810000020B007000078010008F6
:1025A0000100000010000000000000000024F40002
:0400000508000121CD
:00000001FF
