:020000040800F2
:100000009807002069020008CB2E0008772A000814
:10001000C92E0008771B0008A93000080000000066
:10002000000000000000000000000000CF2E0008CB
:10003000791B000800000000CD2E0008D12E00081A
:10004000830200088302000883020008830200087C
:10005000830200088302000883020008830200086C
:10006000830200088302000883020008830200085C
:10007000830200088302000883020008830200084C
:1000800083020008830200088302000800000000C9
:1000900000000000000000000000000083020008D3
:1000A000830200088302000883020008830200081C
:1000B000830200088302000883020008830200080C
:1000C00083020008830200088302000883020008FC
:1000D00083020008830200088302000883020008EC
:1000E0008302000883020008830200080000000069
:1000F0000000000000000000000000000000000000
:1001000000000000000000000000000000000000EF
:1001100000000000000000008302000883020008C5
:1001200000F002F800F090F80AA090E8000C824479
:100130008344AAF10107DA4501D100F085F8AFF256
:10014000090EBAE80F0013F0010F18BFFB1A43F0B5
:1001500001031847603E0000803E0000103A24BFB3
:1001600078C878C1FAD8520724BF30C830C144BF1C
:1001700004680C607047000000230024002500265E
:10018000103A28BF78C1FBD8520728BF30C148BFFA
:100190000B6070476E2900F06181702900F0A38226
:1001A000662903F07986652903F07686672903F0CE
:1001B0007386612903F0728603681B0A28BF41F029
:1001C0008001692900F00E81642900F00B817529F6
:1001D00000F008816F2900F03082782900F06F82EA
:1001E000E92900F0CB81E42900F0C881F52900F06D
:1001F000C581EF2900F02D82F82900F06E82036896
:10020000DB0928BF41F08001632900F07187732961
:1002100000F07687E32900F08187F32900F08687D4
:10022000002070471FB500F0D3FF0400002000211C
:1002300003F01CFE401C60600020002103F000FE63
:10024000E0601FBD10B510BD00F094FF1146FFF730
:10025000E9FF03F03FFC01F071F803B4FFF7F2FF90
:1002600003BC01F0B9F8000009488047094800477D
:10027000FEE7FEE7FEE7FEE7FEE7FEE7FEE7FEE756
:10028000FEE7FEE704480549054A064B70470000B3
:10029000252F000821010008980100209807002060
:1002A00098030020980300201CB50C46064B7B44A5
:1002B00069460090204600F0EAF8044600206946AE
:1002C00000F0F8F820461CBD030200004FF00002C9
:1002D00000B5134694469646203922BFA0E80C503C
:1002E000A0E80C50B1F12001BFF4F7AF090728BF17
:1002F000A0E80C5048BF0CC05DF804EB890028BF93
:1003000040F8042B08BF704748BF20F8022B11F0BB
:10031000804F18BF00F8012B704770477047704737
:1003200070B5044685690068C10601D5302600E035
:100330002026C00707D070BDD4E901213046904780
:10034000206A401C20626D1EF6D570BD70B5044653
:1003500085690078C00707D170BDD4E9012120204C
:100360009047206A401C20626D1EF6D570BD09685A
:100370004A0501D540B27047C905FCD500B27047A7
:1003800009684A0501D5C0B27047C905FCD580B2DD
:10039000704770B50C460546012A05D028788006BE
:1003A00000D5EA69002302E0012305E05B1C9342CB
:1003B00002D2E05C0028F9D1A869E618C01AA86149
:1003C000286A184428622846FFF7AAFF04E0D5E906
:1003D000012114F8010B9047B442F8D32846FFF7E7
:1003E000B5FF70BD2DE9F04106460024106875295F
:1003F000314616A510D0FFF7BAFF002802DA4042B6
:1004000013A507E031688A0701D512A502E0490764
:1004100004D511A5012401E0FFF7B2FF00210A2253
:1004200006F1240709E0B0FBF2FCB0FBF2F302FB9B
:100430001C00303078541846491C0028F3D123465C
:100440002A463046BDE8F04100F061BA00000000E5
:100450002D0000002B000000200000001168026841
:10046000006A530501D508700AE0D30501D508805C
:1004700006E0130603D5C217C1E9000200E00860D8
:100480000120704701694A1C02610878704700B575
:100490008FB0CDE901310021059105497944CDE9BD
:1004A00003101146684600F029F90FB000BD0000A6
:1004B000E5FFFFFF0A6802F8010B0A6070470000C1
:1004C0002DE9FF5F15468A460446DFF8AC80F84404
:1004D0000027D8E900103E46CDE9001010E03AF8B8
:1004E00016106A4602A800F025FE411C07D02178AC
:1004F000890603D5E269391891420DD80744761C64
:100500002078800602D5E069B84205DDAE42E6DB20
:100510003AF816000028E2D1A069C01BA06120466D
:10052000FFF7FEFED8E90010CDE90010002017E02B
:100530003AF818106A4602A800F0FCFDB0F1FF3F3F
:1005400081460BD000250DF1080B05E0D4E901210F
:100550001BF8050090476D1C4D45F7D308F10100CD
:10056000B0428046E4DB206A384420622046FFF730
:10057000EDFEBDE8FF9F0000E63900002DE9F041E7
:100580008046D21D22F007020025D2E90002F5299B
:1005900015A614D0011E72F1000106DA0023D0EB7B
:1005A000030063EB020211A608E0D8F800108B07E5
:1005B00001D50FA602E0490701D50EA60125114677
:1005C000002408F1240704E000F05CF930323A55C9
:1005D000641C50EA0102F7D12B46324621464046C0
:1005E000BDE8F04100F093B9000000002D000000CC
:1005F0002B0000002000000030B4002100F1240492
:1006000008E002F00705D208303542EA4372DB0801
:100610006554491C52EA0305F3D10468002310A273
:10062000250707D5A40600D421B1C46901230DA272
:10063000641EC46130BC00F06AB910B5044621469E
:100640001068FFF79DFE02462046BDE810400023DB
:10065000D2E7D21D22F00701D1E90023CCE7000048
:100660000000000030000000F0B40D4601880905CC
:1006700002D5214C7C4402E01F4C7C440E34002106
:1006800000F1240608E002F00F071209E75D42EAD4
:1006900003721B097754491C52EA0307F3D102780D
:1006A0000023120704D5702D06D009B1022311349E
:1006B0002246F0BC00F02BB901231034F8E770B5E6
:1006C00004460D4621461068FFF75AFE02462946A9
:1006D0002046BDE870400023C6E7D21D22F0070384
:1006E000D3E90023C0E70368126843F020030360E6
:1006F0000823C3610023B7E7483800002DE9F05F05
:10070000894604464FF0000ADFF874B1FB44C0F894
:1007100020A02046E1688847002874D0252806D00C
:10072000D4E901219047206A401C2062F1E70026AD
:100730005F462046E16888472028054607DB312DC3
:1007400005D2781910F8200C08B10643F1E7B0077C
:1007500001D526F00406C4F81CA00027C4F818A090
:100760002A2D09D0284602F0C4FC38B304EB8708D0
:10077000303DC8F8185019E059F8041B204604EB26
:1007800087029161E1688847012F054618D1E06929
:10079000002820DA26F020061DE0D8F8180000EB2B
:1007A000800005EB40003038C8F818002046E168AA
:1007B0008847054602F09DFC0028EED1012F0AD0A3
:1007C0002E2D08D12046E16888477F1C0546022F60
:1007D00046F02006C4DBA069002803DA404246F058
:1007E0000106A061F00701D026F010066C2D0BD099
:1007F000682D09D04C2D39D06A2D35D0742D35D0C7
:100800007A2D33D016E038E0E1682F46204688473D
:10081000B842054609D16C2F26D04FF48060E168BC
:10082000064320468847054604E06C2F1AD04FF453
:10083000807006430DB3A5F14100192802D8203578
:1008400046F400664A462946204626604E46FFF793
:10085000A1FC80B101280BD0F61D26F0070000F1A5
:10086000080956E74020E4E78020D8E70020D6E7D3
:1008700006F104094DE7284652E7206ABDE8F09FDB
:10088000D837000030B5B0F10A024FEA900E71F18E
:1008900000034EEA817EB0EB0E0061EB91014FEA5E
:1008A000101E4EEA017E10EB0E0041EB11114FEAD3
:1008B000102E4EEA016E10EB0E0041EB11214FEAB3
:1008C000104E4EEA014E10EB0E0041EB1141401864
:1008D00041F100014FEAD00040EA41704FEAD101F6
:1008E00010EB80054FEA810444EA907444EB010464
:1008F0006D1944EB0404521BA3414FF0000348BFA1
:100900000A3200D530BD401C41F1000130BD2DE957
:10091000F0470D4699469246044600F124080168C6
:10092000880604D5E06921F01001216000E0012073
:10093000A84201DD471B00E00027A1697A1902EBFC
:100940000900081AA0612078C00602D42046FFF7EB
:10095000E7FC002608E0D4E901211AF806009047D8
:10096000206A401C761C20624E45F4DB2078C006CD
:100970000AD52046FFF7D4FC06E0D4E90121302057
:100980009047206A401C2062381EA7F10107F4DC62
:1009900007E0D4E9012118F805009047206A401CBF
:1009A0002062281EA5F10105F3DC2046FFF7CEFCEE
:1009B0002078000602D50220BDE8F0870120FBE781
:1009C00070472DE9FF4F0C461E464FF0FF378BB0A6
:1009D000D2E90001DDF860800A908A46C1F30A5529
:1009E00005B93D46002108464FF00000BAF1000F5E
:1009F00000F4400005DA00EB80004FF4400101EA0A
:100A000050004FEA9059B9F1010F00DDB9460A983C
:100A100050EA4A000ED044F61050A5F2FF35454387
:100A20002F14B8F1000F1ED07542291E1EDDC9F12A
:100A300000021CE0B8F1010F4FF0000001D030219E
:100A400003E0F24305E02154401CB042FBDB30469A
:100A50000022002121540B99C1F80880C1E900202F
:100A60000FB0BDE8F08FBD1B6D1CDEE74A4600DA13
:100A7000694206A800F0F0FB06AB93E8070003AB61
:100A800083E8070050460A9900F0ADFC8DE80700A6
:100A9000A0F500501F3800900398002D0ADD42F2A7
:100AA0001F014A460844002303A90390684600F04A
:100AB00016FF09E0A0F500504A461F38002303A99D
:100AC0000390684600F020FF8DE807000004000C4A
:100AD00003D04FF0FF30410800E01046B8F1000F9E
:100AE00003D00022009215461EE0751E05D4FFF7C4
:100AF000C9FE303262556D1EF9D5B3460122084356
:100B000002D000227F1C04E02078302801D100228E
:100B10007F1E002A099784D01DE0112D07DAFFF708
:100B2000B1FE303262556D1C50EA0102F5D1084326
:100B300002D00098C8B10EE00021681E05E0235CD9
:100B4000625C63542254401E491C8142F7DBAB4671
:100B5000A81B401E0990002004F80B000B98099A6E
:100B6000C0F80880C0E9002B7AE711264FF0000892
:100B700057E72DE9F04F88460446D21D22F00701C1
:100B800091B0D1E90001CDE90A0102F08EFA0246E6
:100B90000B98C00F01D02D2007E02068810701D5F8
:100BA0002B2002E0202101EAC000032A099001D095
:100BB000072A05DB03464146204600F00DFB0BE10A
:100BC0002078800601D5E06900E00620B8F1650FC5
:100BD000814606D0B8F1660F18D0B8F1670F70D112
:100BE00031E00020B9F1110F009001DB112301E089
:100BF00009F101030AAA01A90CA8FFF7E2FEDDE949
:100C00000C70002609F10105834647E001204B46A0
:100C100000904FF000470AAA01A90CA8FFF7D1FEE7
:100C2000DDE90DB00C995D46002610B909F101000F
:100C30000D18B9EB050003D4C0F1FF3609F1010529
:100C4000A5EB09002BE0B9F1010F01DA4FF0010922
:100C50000020B9F1110F0090484601DD112300E09A
:100C600003460AAA01A90CA8FFF7ABFEDDE90C7048
:100C70004D4600268346207800070AD4AB4500DAAB
:100C80005D4601A8012D04DD411911F8011C302930
:100C900007D04F4502DA17F1040F04DA012082462B
:100CA0000FE06D1EEEE7002F02DCED1B3E4403E07B
:100CB000781CA84200DD7D1CB81B00F1010A4FF032
:100CC00000472078000703D4AA4501DB4FF0FF3A24
:100CD0000021B7F1004F0DF143088DF8431024D0E7
:100CE00002202B23002F01DA7F422D230A21021E2E
:100CF000A0F1010000DC5FB197FBF1FC97FBF1F282
:100D000001FB1C7C17460CF1300C08F801CDEEE716
:100D1000A8F1010003702188090501D5452100E0F3
:100D20006521A0F1010800F8011C09980FA9A1EBA9
:100D30000807FF1D00B10120411901EBEA70A1690C
:100D40003844081A401EA0612078C00602D420460C
:100D5000FFF7E6FA099828B1D4E901219047206A03
:100D6000401C20622078C00622D52046FFF7D8FA22
:100D70001EE0002E04DBB34502DD01A8805D00E02B
:100D80003020D4E901219047206A401C2062761C63
:100D9000AAF101005FEA000A0AD100F019FAC0685E
:100DA0000168405CD4E901219047206A401C206220
:100DB000281EA5F10105DCDC07E0D4E9012118F8C3
:100DC000010B9047206A401C2062381EA7F10107E2
:100DD000F3DC2046FFF7BAFA032011B041E6000029
:100DE0002DE9F04F04460D46D21D22F0070089B0D0
:100DF000D0E900974846394602F057F90246F80F05
:100E000001D02D2307E02068810701D52B2302E0C4
:100E1000202101EAC0038DF820300BB1012000E051
:100E20000020032A824601D0072A04DB29462046F7
:100E300000F0D2F93FE12078800601D40D2500E0D2
:100E4000E569C7F30A560D2D49DA00214FEA175B11
:100E500008464FF00000002F00F4400007DA00EBD6
:100E600080004FF4400100EBD07001EA6000811572
:100E7000012901DD4FF0FF3100224FEA850CBCF162
:100E8000180F06D31346ACF118004FF08052C24041
:100E900003E04FF4801323FA0CF30CF10C0CBCF1BB
:100EA000200F04D3ACF1200C09FA0CF001E007FA92
:100EB0000CF000294FF0004801DD18B90FE00ED109
:100EC00040450CD319EB02095F4121B9404502D1DD
:100ED0009F4329EA0209BBEB175F00D0761C2088EC
:100EE000000502D57B48784402E07A4878441938F6
:100EF00008AA302302F80A30037C0AF10101002E0F
:100F00000AF1020A53546A4602DC4FF0300101E054
:100F10004FF031014FF001088DF8001002D0A6F219
:100F2000FF3603E059EA470100D06B4E002D02DC8A
:100F30002178090704D54FF002082E218DF8011001
:100F4000C44600210BE0C7F303433F01C35C491CC7
:100F50006D1E02F80830052908F1010801DA002D9C
:100F6000F1DC00210CE000EB1973491C1B786D1EAD
:100F7000082902F808304FEA091908F1010801DAD6
:100F8000002DF0DC21688B0602D516E0A8F10108DF
:100F9000E04505DD02EB080313F8013C302BF5D0EA
:100FA000B8F1000F09DD02EB080313F8013C2E2B0A
:100FB00003D1090701D4A8F10108002D05DD3E2168
:100FC00002F808106D1E08F10108407C002E02F89E
:100FD000080008F1010804DA2D20764202F8080022
:100FE00002E02B2002F808000A214FF47A708642B2
:100FF00008F101080BDB96FBF0F3303302F8083000
:1010000096FBF0F308F1010800FB136601E0642E83
:101010000CDB642096FBF0F3303302F8083096FBCB
:10102000F0F308F1010800FB136601E00A2E06DB6D
:1010300096FBF1F0303002F8080008F1010896FB49
:10104000F1F001FB1060303002F80800A16908F1EE
:10105000010808EB050202EB0A00081AA0612078DB
:10106000C00602D42046FFF75BF9216A08AE01EB07
:101070000A00206204E0D4E9012116F8010B904730
:10108000BAF1010AF7D22078C00602D52046FFF750
:1010900047F96E4609E016F8010B3E280FD0D4E957
:1010A00001219047206A401C2062B8F10108F2D269
:1010B0002046FFF74BF909B00320BDE8F08F206A06
:1010C0002844206203E0D4E90121302090476D1EBE
:1010D000EBD3F8E72230000002FCFFFF10B54369B4
:1010E00013B1AFF3008001E0FFF753F9012010BD09
:1010F000127800F124010A7000224A700122EDE703
:1011000011684FF0FF32E9E710B5436913B1AFF34F
:10111000008001E0FFF7D4F9012010BD128800F132
:10112000240182840022C2840122EDE711684FF07D
:10113000FF32E9E770B516460C46054600F040F868
:10114000036893F80101012806D0FF2C0FD8185D21
:1011500068B101202C7070BDD3F8070132462146DA
:1011600003F2071303442846BDE8704018474FF0C8
:10117000FF3070BD754600F0EBF8AE4605006946DD
:10118000534620F00700854618B020B5FFF77AF8DF
:10119000BDE820404FF000064FF000074FF0000878
:1011A0004FF0000B21F00701AC46ACE8C009ACE8F9
:1011B000C009ACE8C009ACE8C0098D467047000022
:1011C00010B500F005F8001D10BD00BFA12C0000F7
:1011D00000487047580100202DE9F0411F460446A1
:1011E00003260168072A01F4006004DB08B116A594
:1011F00005E016A503E008B115A500E015A521F04E
:1012000010002060A069C01EA0610FB1401EA06147
:101210002046FFF785F84FB1D4E9012138469047C1
:10122000206A401C2062C01C206206E0206AFAE7A7
:10123000D4E9012115F8010B9047761EF8D220461B
:10124000FFF784F8BDE8F0814E414E006E616E00FC
:10125000494E4600696E66002DE9F0478146164604
:101260008AB0354878440DC88DE80D00324878447E
:10127000801C03AC0DC884E80D0041F69B30084487
:10128000372190FBF1F290FBF1F5A5F1800501FB10
:1012900012041B3C02D56442012000E00020DFF86C
:1012A00098A080460027FA44AAF1BE0A0EE0E007A3
:1012B0000AD03246684607EB470101230AEB810159
:1012C00000F022FB8DE8070064107F1C002CEED19B
:1012D000194F7F44AE3F19E0E80715D007EB041023
:1012E0000DF1180A90E80E008AE80E00C068F0427E
:1012F00001D1981908903246012306A903A800F0ED
:1013000003FB03AB83E807006D10641C002DE3D1E1
:101310004FF0010332466946B8F1000F03A802D02E
:1013200000F0DDFA01E000F0EFFAC9E90001C9F8C8
:1013300008200AB0BDE8F087342D000010B504463F
:10134000AFF300802046BDE81040FEF786BF0000E6
:1013500000487047380100204FF0013C50F8042B42
:1013600051F8043B9A4221D1A2EB0C03934313EAB8
:10137000CC1317D150F8042B51F8043B9A4215D1E5
:10138000A2EB0C03934313EACC130BD150F8042BBC
:1013900051F8043B9A4209D1A2EB0C03934313EAA0
:1013A000CC13DBD04FF00000704700BFD01A01BA59
:1013B000B1FA81F101F0180122FA01F0CB40C1F13C
:1013C0002001DBB2C0B2C01A2CFA01F3D11A91434A
:1013D00011EAC311E6D1704701491820ABBEFEE700
:1013E0002600020070475FEA400C08BF91F0000F32
:1013F0004FEA8C234FEAC12243EA51514FEA1C5075
:1014000018BF00F5F0404FEA300018BF41F000412E
:101410005FEA6C5C00F02980BCF1FF3F08BF40F040
:1014200080407047130C06BF12044FF0100C4FF0B1
:10143000000C130E04BF12020CF1080C130F04BFB2
:1014400012010CF1040C930F04BF92000CF1020C7A
:10145000D30F04BF52000CF1010C11464FF00002F3
:10146000A0F11F00A0EB0C00704711F0004F08BF67
:10147000704731F000413FF4D5AF0B0C06BF0904B3
:101480004FF0100C4FF0000C0B0E04BF09020CF1D2
:10149000080C0B0F04BF09010CF1040C8B0F04BFE7
:1014A00089000CF1020CCB0F04BF49000CF1010CB8
:1014B000CCF12003A0EB0C0022FA03F302FA0CF2A9
:1014C00041EA030100F10100704720F07F4C80EAFF
:1014D000030023F07F47ACEB070303F57C5300F0D8
:1014E000004003F1FF032DE980494FEA154B09B491
:1014F0004FEA144325EA0B4E24EA03480FF2042670
:1015000006EB132749083E785FEA320203FB0667C1
:10151000C7F5000707FB06F64FEA54374FEAD646F1
:1015200006F1020607FB066CCCF1005C4FEA1C4793
:101530002CEA074C07FB06F40CFB06F504EB1546FA
:101540004FEA961634BF00204FF000404FEAD137E3
:1015500006FB07FC4FEA1C4C0CFB0BF7D21B03FBF2
:101560000CF761EB07010CFB0EF7B0EB074072EBD9
:1015700017420CFB08F734BFA2EB0742B2EB07425D
:1015800061EB17414FEA0C444FEA910706FB07FC59
:101590004FEA1C4C0CFB0BF7B0EBC74072EB573219
:1015A00003FB0CF734BFA2EBC742B2EBC74261EBBF
:1015B00057310CFB0EF7B0EBC70072EB57720CFB08
:1015C00008F734BFA2EBC702B2EBC70261EB577159
:1015D000039F4FEA816141EA921104EBCC044FEA88
:1015E000D1374FEA826206FB07FC42EA90124FEACB
:1015F00080604FEA1C4C0CFB0BF7D21B03FB0CF773
:1016000061EB07010CFB0EF7B0EB074072EB1742E2
:101610000CFB08F734BFA2EB0742B2EB074261EBC9
:1016200017414FEA8C554FEA910704EB9C2406FBC7
:1016300007FC4FEA1C4C0CFB0BF7B0EBC74072EBFE
:10164000573203FB0CF734BFA2EBC742B2EBC742E1
:1016500061EB57310CFB0EF7B0EBC70072EB577222
:101660000CFB08F734BFA2EBC702B2EBC70261EB79
:10167000577115EB4C254FEA816141EA92114FEA0F
:1016800082624FEAD13742EA901206FB07FC44F12E
:1016900000044FEA80604FEA1C4C0CFB0BF7D21B96
:1016A00003FB0CF761EB07010CFB0EF7B0EB0740F7
:1016B00072EB17420CFB08F734BFA2EB0742B2EB08
:1016C000074261EB174115EB1C154FEA813141EAE6
:1016D00092414FEA823242EA90424FEA80304FEA2A
:1016E0000C7644F1000448EA03434EEA0B484FF0FD
:1016F000000EB2EB080C71EB030724BF62463946BB
:101700004EEB0E0E4FF0000B0018524149414BEBCF
:101710000B0BB2EB080C71EB03077BF1000B24BF42
:10172000624639464EEB0E0E4FF0000B0018524148
:1017300049414BEB0B0BB2EB080C71EB03077BF150
:10174000000B24BF624639464EEB0E0E51EA0207EB
:1017500018BF46F0010616EB0E7655F1000254F163
:10176000000103D5BDE88901BDE80088BDE8890115
:10177000BDE80048B619524141EB0101A3F1010354
:10178000704780807F7E7D7C7B7A797877767675EE
:101790007473727171706F6E6E6D6C6C6B6A6A6966
:1017A0006868676666656464636362616160605F00
:1017B0005F5E5E5D5D5C5C5B5B5A5A595958585779
:1017C00057565655555554545353525252515150E1
:1017D00050504F4F4F4E4E4D4D4D4C4C4C4B4B4B34
:1017E0004A4A4A494949484848474747474646467A
:1017F00045454544444444434343434242424241B5
:101800004141002B9C4630D477002BD01CB54FEAC9
:10181000370703B44FF010004FF01001BAF1000F7A
:1018200006D0BCF1000FDCBF40F0080040F008011A
:101830004FF000000FBCBDE810400BF1010BBBF1F5
:10184000010F08BF5FEA170722BF12F1010211F171
:1018500001014FF0004143F1000300F0004043EA72
:1018600000007047F9D35708D0E746EA064613F15F
:10187000400F4FEA16461FDD13F1200FDFBF16435E
:101880000A46002120335B42BED0C3F1200746EA5E
:10189000064602FA07F74FEA164646EA0706C3F17C
:1018A000200722FA03F201FA07F721FA03F14FF0B9
:1018B000000342EA0702A7E746EA020646EA0646AE
:1018C0004FEA164646EA0106BCBF46EA0646360C13
:1018D0004FF000034FF000024FF0000194E72DE9B4
:1018E000804C9A46934670B491E8380007C831EAB4
:1018F000400C48BF34EA430C03D5FFF7E6FDFFF781
:1019000080FFF0BCBDE8008C2DE9804C9A469346E0
:1019100070B491E8380007C810F0804F08BF13F08A
:10192000804F03D100F005F8FFF76BFFF0BCBDE876
:10193000008C20F07F4780EA030023F07F4C07EB08
:101940000C03A3F57C5300F00040A3F1FE0392F0DA
:10195000000F00F0B38095F0000F00F077802DE9C4
:1019600001494FEA11404FEA144621EA004800FBC2
:1019700006FC24EA064708FB06F607FB08F800FB0E
:1019800007F718EB06484CEB164C4FEA124B18EBD6
:1019900007484FEA15464CEB174022EA0B4E0BFB6B
:1019A00006FC25EA06470EFB06F607FB0EFE0BFBC0
:1019B00007F71EEB064E4CEB164C4FF000061EEBE5
:1019C000074E4CEB174B18EB0B0840F1000018EBDF
:1019D0000E0B58EB000840F100008F1A4FF0000189
:1019E0003CBFC943661B14BFB5EB040C00213CBFD0
:1019F000C943F61B4FEA17444EEA8E0E27EA044508
:101A00004FEA1C4704FB07622CEA074C05FB07F76B
:101A10000CFB05F604FB0CFC16EB074642EB1742E9
:101A200016EB0C4642EB1C421BEB060658EB02027F
:101A3000414146EA9E0601D5BDE80189B6195241E9
:101A400041EB0101A3F10103BDE801894FEA14450F
:101A50004FEA114724EA054621EA074C05FB07F443
:101A600006FB07F70CFB06F105FB0CFC11EB07412D
:101A700044EB17444FEA124711EB0C4144EB1C4472
:101A800022EA074C05FB07F206FB07F70CFB06F6FC
:101A900005FB0CFC16EB074642EB174216EB0C4617
:101AA00042EB1C456A1854F1000148BF7047B61953
:101AB000524141EB0101A3F10103704795F0000F82
:101AC00037D04FEA11424FEA144721EA024624EA8E
:101AD000074C02FB07F106FB07F70CFB06F402FBC1
:101AE0000CFC14EB074441EB17414FEA154714EB8C
:101AF0000C4441EB1C4125EA074C02FB07F506FBB1
:101B000007F70CFB06F602FB0CFC16EB074645EB51
:101B1000174516EB0C4645EB1C42121951F100011A
:101B200048BF7047B619524141EB0101A3F10103CF
:101B300070474FEA14454FEA114724EA054621EA67
:101B4000074C05FB07F106FB07F70CFB06F24FF00D
:101B5000000605FB0CFC12EB074241EB174112EBB0
:101B60000C4251EB1C4148BF7047921841EB0101F8
:101B7000A3F101037047FEE77047000070B504460B
:101B800000F004F90546601C02D0044800780444C3
:101B900000F0FCF8401BA042FAD370BD000000200A
:101BA0002DE9F84FDFF8B891002409F1040A0AF191
:101BB000040B23460F270BF1040EC9E00125A540B5
:101BC0002A40AA427DD1674ED1F804C0ACEB06088A
:101BD000B44532D014DCBCF1030F3AD009DCBCF1BF
:101BE000000F2AD0BCF1010F1CD0BCF1020F31D183
:101BF0001DE0BCF1110F17D0BCF1120F2AD119E072
:101C0000B8F5881F19D006DCB8F5803F15D0B8F5B7
:101C1000801F1FD111E0B8F5001F0ED0B8F5041FCA
:101C200018D10AE0CB6815E0CB681B1D12E0CB6829
:101C300008330FE0CB680C330CE08B682BB1012B21
:101C40004FF0080303D0456104E0042302E005617E
:101C500000E00023FF2A01D8064601E000F1040657
:101C60004FEA840501D9A5F12005D6F8008007FACE
:101C700005FC28EA0C0803FA05F548EA0508C6F849
:101C800000804D68ED0062D5374DAE6946F0010623
:101C9000AE61AD6924F0030605F001050095334DF2
:101CA00006EB050CDCF80850A607360F07FA06F815
:101CB00025EA0805DFF8B880404503D14FF0000859
:101CC00017E044E0DFF8AC80404502D14FF0010856
:101CD0000FE0DFF8A480404502D14FF0020808E091
:101CE000DFF89880404502D14FF0030801E04FF043
:101CF000040808FA06F848EA0508CCF808804D6898
:101D0000D9F80060ED034D4601D5164300E0964337
:101D10002E604D68DAF80060AD03554601D51643D4
:101D200000E096432E604D68DBF80060ED025D46F2
:101D300001D5164300E096432E604D68DEF8006042
:101D4000AD02754601D5164300E096432E60641C33
:101D50000D682A46E5407FF431AFBDE8F88F0000FA
:101D6000000401400000111000100240000001407A
:101D700000080140000C0140001001400014014027
:101D80000AB1016170470904FBE70000014880685F
:101D9000704700000000002070B5040025D094F8C2
:101DA0003D00002520B984F83C50204600F078FA28
:101DB000242084F83D002068016821F001010160C1
:101DC0002068016841F4004101602068016821F445
:101DD0000041016000F08AFB4D4A6168914201D8E0
:101DE0004C4900E04C49884201D2012070BD4B496A
:101DF0002368B0FBF1F15E6826F03F060E435E609B
:101E00006368934206D94FF4967359434FF47A733B
:101E1000B1FBF3F12368491C1E6A26F03F063143EB
:101E200019626168914210D84900401EB0FBF1F27E
:101E3000521CC2F30B02042A01D2042022E0B0FBA0
:101E4000F1F0401CC0F30B001CE0A268F2B301EB00
:101E5000C10303EB0116431EB3FBF6F35B1C43F413
:101E600080431B0549D092B301EBC10202EB011183
:101E7000401EB0FBF1F0401CC0F30B0040F480406A
:101E800040F400402168CA694CF6FF739A4310433E
:101E9000C861D4E9071001432068026822F0C0023B
:101EA00011430160D4E9030101432068826848F2CC
:101EB000FF339A4311438160D4E905010843216847
:101EC000CA6822F0FF021043C86001E00EE016E08D
:101ED0002068016841F0010101602564202084F838
:101EE0003D00256384F83E50002070BD01EB4106A3
:101EF000431EB3FBF6F35B1CB3E70120C2E701EB23
:101F00004101401EB0FBF1F0401CC0F30B00B7E7ED
:101F1000A086010080841E0000093D0040420F00A1
:101F20002DE9FF4F83B00025DDE910799A469346ED
:101F30000446DDF848800095FFF728FF064694F830
:101F40003D0020287CD11923012285492046009696
:101F500000F0A2FE0028F5D194F83C0001286FD0D3
:101F6000012084F83C0020680168C90703D101689A
:101F700041F0010101602068016821F40061016005
:101F8000222084F83D00402084F83E0025646762EA
:101F9000A4F82A90608D20857248E062CDE9008621
:101FA00053465A462046049900F07EFD00287DD114
:101FB000208DDFF8B491202768B1012814D00228C1
:101FC000206801681ED041F4806101602068416989
:101FD00080690090B6E020684169816900910168DC
:101FE00041F400710160ADE02068016821F4806176
:101FF000016072B62068416981690091016841F40D
:1020000000710AE041F40061016072B62068416924
:1020100081690091016821F48061016062B691E0FC
:10202000032868D801280CD0022843464FF000024C
:102030004946204600960FD000F02EFEB0BB10E0BF
:102040008BE032464146204600F0A5FE70BB20687A
:102050000069616A08706CE000F01EFE30BB72B669
:1020600034E02068016821F48061016072B6206864
:102070000069616A0870606A401C6062208D401EC1
:102080002085608D401E6085384846F2A8110068A2
:10209000B0FBF1F0C0EBC00000EB80000090401EF0
:1020A000009008D020684069C04300E029E0400764
:1020B0000CD50098F3E744F8305F6773A573206987
:1020C00040F02000206162B625731AE020680168A4
:1020D00041F40071016020680069616A0870606AFB
:1020E000401C6062218D491E2185618D491E6185DC
:1020F00062B621681BE032464146204600F04BFEA6
:1021000018B1012007B0BDE8F08F20680069616A4E
:102110000870606A401C6062218D491E2185618DB6
:10212000491E618521684A69D24352070AD4096968
:102130000170606A401C6062208D401E2085608DA9
:10214000401E6085208D00287FF46AAF84F83D70C2
:1021500084F83E5084F83C50D4E70220D2E70000D7
:10216000020010000000FFFF040001000C0000202E
:102170002DE9FF4F83B09A46DDE911979346044657
:10218000DDF84080FFF702FE054694F83D00202868
:102190007FD11923012240492046009500F07CFDA3
:1021A000002876D194F83C00012872D0012084F8F0
:1021B0003C0020680168C90703D1016841F00101B2
:1021C00001602068016821F400610160212084F829
:1021D0003D00402084F83E0000262664C4F8248098
:1021E000A4F82A90608D20852C48E062CDE9007526
:1021F00053465A462046049900F0D4FC70B930E0AA
:102200002A463946204600F0F9FD58B1206C0428D2
:1022100004D12068016841F400710160012007B019
:10222000BDE8F08F606A216800780861606A401C30
:102230006062218D491E89B22185628D521E6285A0
:1022400022685369DB435B070BD469B100781061E6
:10225000606A401C6062208D401E2085608D401E9B
:102260006085208D0028CBD12A463946204600F0D3
:10227000EDFC0028CAD154F83D0B016841F400710F
:102280000160202004F81E09E67766770020C6E783
:10229000FFE70220C3E70000020010000000FFFF7C
:1022A00010B586B000210091019102910391006860
:1022B0000F4988421AD10F4CA06940F00800A06174
:1022C000A069694600F008000490C0200090122028
:1022D0000190032003900848FFF762FCE06940F496
:1022E0000010E061E06900F40010049006B010BD39
:1022F0000054004000100240000C01400248816878
:1023000002781144816070470000002010B503205E
:1023100000F066F8002000F005F800F023F8002037
:1023200010BD000070B50D4D04464FF47A71287849
:10233000B1FBF0F00A490968B1FBF0F000F0C4FA13
:1023400048B9102C07D200222146501E00F028F870
:1023500000206C6070BD012070BD000000000020F6
:102360000C0000200C4808B5816941F00101816131
:10237000816901F001010091C16941F08051C161A1
:10238000C06900F0805000900448416821F0E0618D
:1023900041F00071416008BD0010024000000140A2
:1023A000F0B40E4B1B680C46C3F30223C3F10705C0
:1023B000042D00D90425191D072901D2002300E0AE
:1023C000DB1E012606FA05F1491E214099409E4078
:1023D000761E16403143F0BC00F07BBE0CED00E0F1
:1023E000064900F0070208684FF6FF03184040EA6C
:1023F0000220034A10430860704700000CED00E023
:102400000000FA052DE9F041050027D02868334C7B
:10241000810712D5400703D5606840F4E060606032
:102420002878000703D5606840F4605060606068F9
:10243000A96820F0F000084360602878C00729D020
:102440006868012804D02168022804D0890703E0C5
:102450002168890300E08901002902DB0120BDE831
:10246000F081616821F0030101436160FFF78EFC98
:10247000064641F2883706E0FFF788FC801BB84229
:1024800001D90320EBE76068696800F00C00B0EB4D
:10249000810FF1D12878400705D56068E96820F4FC
:1024A000E060084360602878000706D56068296905
:1024B00020F4605040EAC100606000F037F86168C5
:1024C000074AC1F30311515CC84006490860064839
:1024D0000068FFF727FF0020C1E70000001002405E
:1024E000A03E00080C00002004000020044805491C
:1024F00000684968044AC1F30221515CC840704732
:102500000C00002000100240B03E000804480549BD
:1025100000684968044AC1F3C221515CC840704751
:102520000C00002000100240B03E000813A188B04B
:102530000FC98DE80F0015A10DF1100C0FC98CE823
:102540000F00164A5168164801F00C03042B10D0F6
:10255000082B0ED1C1F38343C9031DF803000AD52C
:10256000D16A04AA01F00F01515C0D4A5043B0FB3F
:10257000F1F008B070470B494843FAE7020304053D
:10258000060708090A0B0C0D0E0F101001020304B8
:1025900005060708090A0B0C0D0E0F10001002406B
:1025A00000127A0000093D002DE9F84F040070D0B8
:1025B0002078C04DC00749D06868C0F38100012869
:1025C00007D06868C0F38100022809D16868C00399
:1025D00006D52868800339D560680028E7D035E043
:1025E0006068B0F5803F0BD010B1B0F5A02F11D0CE
:1025F000286820F480302860286820F4802002E0D9
:10260000286840F480302860606890B1FFF7BEFB16
:1026100006460AE0286840F480202860F0E700BF02
:10262000FFF7B4FB801B642873D828688003F7D5B4
:102630000CE0FFF7ABFB064605E000BFFFF7A6FB8B
:10264000801B6428F0D828688003F7D420789A4E3D
:1026500080074FF001094FF0000839D5686810F085
:102660000C0F07D06868C0F38100022809D16868A0
:10267000C00306D42868800714D52069012808D132
:1026800010E02069B0B1C6F80090FFF77FFB074665
:1026900005E00AE1FFF77AFBC01B0228C4D82868CE
:1026A0008007F7D52868616920F0F80040EAC1008A
:1026B00028600DE0C6F80080FFF768FB074604E0DD
:1026C000FFF764FBC01B022823D828688007F7D4D3
:1026D000207800072CD57948A169D9B1C0F80090BD
:1026E000FFF754FB074604E0FFF750FBC01B02282E
:1026F0000FD8686A8007F7D571484FF4FA5100681F
:10270000B0FBF1F0009000BF0098411E0091FAD29A
:102710000EE080E0C0F80080FFF738FB074604E0D9
:10272000FFF734FBC01B022875D8686A8007F7D40E
:102730002078400760D5E8690027C00008D4E86920
:1027400040F08050E861E869012700F08050009077
:102750005C480168C90513D40168834641F480715F
:102760000160FFF713FB824606E000BFFFF70EFB98
:10277000A0EB0A0064284ED8DBF80000C005F5D5B0
:10278000E06801280AD008B1052813D0286A20F093
:1027900001002862286A20F0040002E0286A40F064
:1027A00001002862E06841F2883B98B1FFF7EEFA39
:1027B00082460BE0286A40F004002862EEE700BF82
:1027C000FFF7E4FAA0EB0A0159455AD8286A8007B6
:1027D000F6D50CE0FFF7DAFA824605E0FFF7D6FA05
:1027E000A0EB0A0159454CD8286A8007F6D41FB1DE
:1027F000E86920F08050E861E06988B36968C1F356
:102800008101022944D00228C6F8608004D0FFF775
:10281000BDFA044638E034E0FFF7B8FA074604E0B2
:10282000FFF7B4FAC01B02282BD828688001F7D420
:10283000206AB0F5803F05D1E86AA16820F00F005A
:102840000843E862D4E908010843696821F4741177
:1028500008436860C6F86090FFF798FA044606E0FF
:1028600025E000BFFFF792FA001B022809D828686C
:102870008001F7D51BE000BFFFF788FA001B022894
:1028800002D90320BDE8F88F28688001F4D40EE057
:102890000128F7D06868226A00F48031914204D19F
:1028A000616A00F47010884201D00120EAE700203C
:1028B000E8E700000010024000004242800442426B
:1028C0000C0000200070004010B5401EB0F1807F69
:1028D00001D3012010BD4FF0E02460610F2160178B
:1028E00000F0F7FB0020A06107202061002010BD50
:1028F00070B5040004D094F83D00002510B106E046
:10290000012070BD84F83C50204600F023F82420BC
:1029100084F83D002068C16821F40051C160204660
:1029200000F002FB2068016921F4904101612068F8
:10293000416921F02A0141612068C16841F40051D8
:10294000C1602564202084F83D0084F83E0000200A
:1029500070BD000030B585B000240094019402944D
:10296000039400681449884224D11448816941F4D1
:1029700080418161816901F480410491816941F064
:102980000401816180690E4D00F0040004904FF451
:1029900000700090022001900320039069462846B1
:1029A000FFF7FEF82815CDE9000469462846029491
:1029B000FFF7F6F805B030BD0038014000100240C6
:1029C000000801402DE9F843044690F83D001F46F9
:1029D00016460D4620284CD1C5B1BEB194F83C0036
:1029E000012846D0012084F83C004FF00008C4F8CC
:1029F0004080212084F83D00FFF7C8F9A684814675
:102A0000E684A068B0F5805F03D004E00120BDE853
:102A1000F883206928B12E465FF0000584F83C80D9
:102A20000EE00026FAE78021204600F00BFBA0B95B
:102A3000AEB116F8010B21684860E08C401EE084BE
:102A4000E08C4B464FF0000200970028EBD14FF08E
:102A50004001204600F0F6FA30B10320D7E735F800
:102A6000020BC0F30800E6E7202084F83D000020B8
:102A7000CDE70220CBE7FEE701684A69D243520561
:102A80000FD46FF480624A61002140F8301F202289
:102A900042738173026942F00402026101730120F2
:102AA00070470020704700002DE9F84F0446006889
:102AB00089460B9D01689846174641F48061016084
:102AC0002068016841F48071016000954FF0011B9E
:102AD0000022594620460A9B00F0DEF84FF4007AA7
:102AE00040B120680068C00501D5C4F840A00320AB
:102AF000BDE8F88F216809F0FE0008612B462849DF
:102B000020460A9A00F0FCF8F0BB20684169806911
:102B100000902A4620460A9900F070F940B1206CD6
:102B200004283AD12068016841F40071016034E062
:102B3000FEB2B8F1010F09D02168380A08612A46AF
:102B400020460A9900F05AF90028E8D12068066169
:102B50002A4620460A9900F051F90028DFD1206862
:102B6000016841F4807101600095002259462046B9
:102B70000A9B00F091F80028B3D1216809F0FF000A
:102B800040F00100086100E007E02B4604492046C0
:102B90000A9A00F0B5F80028AAD00120A8E70000A2
:102BA000020001002DE9F843044600680D46DDE906
:102BB000089701689846164641F4807101604B46BB
:102BC00000224FF001112046009700F065F848B14F
:102BD00020680068C00502D54FF40070206403200F
:102BE000BDE8F883216805F0FE0008613B464A46CF
:102BF0001549204600F084F888B920684169806949
:102C000000903A464946204600F0F8F848B1206C5A
:102C1000042804D12068016841F40071016001209A
:102C2000DEE7F5B2B8F1010F09D02168300A08617A
:102C30003A464946204600F0E1F80028E7D12068EE
:102C400005610020CCE700000200010070B51646C7
:102C50000D4604460DE02046FFF70EFF08B10120A7
:102C600070BD681C05D0FFF791F8801BA84207D8FB
:102C700035B120684069C0434007ECD4002070BDE6
:102C8000002044F8300F20216173A073216941F0C6
:102C9000200121612073E2E72DE9F0471E469046AE
:102CA0000D460446C1F30747DDF8209008E0701C8C
:102CB00006D0FFF76BF8A0EB0900B0420FD876B151
:102CC0002068012F18D0806925EA00000004000C5C
:102CD00014D000214145EAD00020BDE8F087002053
:102CE00044F8300F20216173A073216941F0200165
:102CF000216120730120F0E74069E5E70121E9E760
:102D00002DE9F0479A4691460E46044600254FF0BD
:102D10002008C1F3074725E020684069C04340050B
:102D200014D42068016841F40071016021686FF4D7
:102D300080604861256384F83D8084F83E50206CB3
:102D400040F00400206484F83C501FE0B9F1FF3FDC
:102D500008D0FFF71BF8A0EB0A0149450CD8B9F1E0
:102D6000000F09D02068012F13D0806926EA0000E7
:102D70000004000C0BD0CFE744F8305F84F80D80DE
:102D8000A573206940F02000206125730120BDE873
:102D9000F0874069EAE72DE9F041002590460E46AC
:102DA0000446202717E04069C043C0060CD454F8FD
:102DB000301B6FF01000486144F810596777A57711
:102DC000206A2062257717E0FEF7E0FFA0EB0800FD
:102DD000B04208D83EB120684169C9434906E2D4EF
:102DE0000020BDE8F08144F8305F6773A573206967
:102DF00040F02000206125730120F2E770B51646EF
:102E00000D4604460DE02046FFF736FE08B10120CE
:102E100070BD681C05D0FEF7B9FF801BA84207D81B
:102E200035B120684069C0430006ECD4002070BD75
:102E3000002044F8300F20216173A073216941F014
:102E4000200121612073E2E770B586B000241C48A0
:102E50000094019402940394816941F0100181610E
:102E6000816901F010010491816941F020018161C3
:102E7000816901F020010491816941F004018161BF
:102E8000816901F004010491816941F008018161C7
:102E900080690C4E00F008004FF440750490002249
:102EA00029463046FEF76CFF01200095CDE901046C
:102EB0000220039069463046FEF772FE06B070BDF0
:102EC0000010024000100140FEE7FEE77047704727
:102ED000FFF714BA10B590B028216846FDF7F6F94F
:102EE00014210AA8FDF7F2F90220009001200490B5
:102EF00010200024059007946846FFF755FB08B1A1
:102F000072B6FEE70F20CDE90A040C940D9400215F
:102F10000AA80E94FFF776FA002801D072B6FEE7F1
:102F200010B010BD704700002DE9F0410446006864
:102F30000169E26821F44051114301612169A068EF
:102F4000E26908436169114322680843D16849F284
:102F50000C6399430143D16020684169A26921F45F
:102F600040711143416136492068884202D1FFF720
:102F7000CDFA01E0FFF7BAFA0246E3696420322194
:102F8000B3F5004F02EBC20303EB021362682BD0D0
:102F90009200B3FBF2F5B5FBF0F5B3FBF2F66FF080
:102FA00018077D4306EB8505B3FBF2F601EB05152B
:102FB000B5FBF0F5B6FBF0F605F0F00505EB0615F0
:102FC000B3FBF2F6B3FBF2F2B2FBF0F27A4306EB9C
:102FD000820201EB0211B1FBF0F000F00F0021685A
:102FE00028448860BDE8F0815200B3FBF2F6B6FBDE
:102FF000F0F6B3FBF2F7B3FBF2F56FF0180C06FB3B
:103000000CF607EB860601EBC606B5FBF0F5B6FB42
:10301000F0F62D0106F0F80605EB4605B3FBF2F6D7
:10302000B3FBF2F2B2FBF0F202FB0CF206EB82020F
:1030300001EBC201B1FBF0F000F00700CFE70000A8
:10304000003801402DE9F041984617460E460446E7
:10305000069D1DE0681C1BD02DB1FEF797FEA0EB6E
:103060000800A84214D92068C16821F4D071C16059
:103070002068416921F001014161202084F83D0070
:1030800084F83E00002084F83C000320BDE8F08175
:103090002068006836EA000004D00020B842D9D089
:1030A0000020F3E70120F9E7FEE7490050EAC120DC
:1030B00018BF04204A0D18BF40F0010040F2FF7213
:1030C000B2EB515F08BF40F00200012808BF0520A5
:1030D00070470907090E002804DB00F1E02080F8A2
:1030E0000014704700F00F0000F1E02080F8141D7C
:1030F000704730380A2801D20120704700207047FD
:103100001CB5044600F06EFD10B14FF0FF3137E002
:1031100007226946712000F035F801469DF800004D
:1031200020709DF8010060709DF80200A0709DF86D
:1031300006009DF80320800300B240EA8210C21707
:1031400000EB92608011A0809DF806009DF804209D
:103150008008800300B240EA8210C21700EB926040
:103160008011E0809DF806009DF80520000980038D
:1031700000B240EA8210C21700EB926080112081F9
:1031800008461CBD13460E4A30B412682AB1946931
:103190001CB133B195783DB108E04FF0FF3030BC41
:1031A00070476FF00B00FAE740F08000C5B250782E
:1031B0000A462946A446400630BC000E604700007F
:1031C00010000020034630B403F0070300209C08E1
:1031D00003F0030500D003200E4B1C684FF0FF33B3
:1031E000B4B1012D06D0022D08D0032D0BD0181F2D
:1031F00030BC704761B130BC00F0A4BA42B130BC01
:10320000114600F033BB1AB111B130BC00F0CEBA98
:103210001846EDE71000002038B5154C0325206056
:1032200000F0E0FC2168002200280A7007D18978AC
:1032300051B9012269467F20FFF7A4FF20B138BDB4
:1032400001220020FFF79EFF6D1EEDB203D321681F
:103250000A78D12AF4D118B920680178D12902D08E
:103260006FF0020038BDFF21C17000F0A1F838BD39
:1032700010000020084810B5006848B1006A38B155
:1032800000F0E4FC002805D1BDE8104000F054BD7A
:103290004FF0FF3010BD0000100000202DE9F04776
:1032A000DFF8988004460025D8F8000089461746C4
:1032B0002E4640B1D0F81CC0BCF1000F03D02FB196
:1032C000817831B107E04FF0FF3533E06FF00B0547
:1032D00030E004F07F04017A112902D0017C152925
:1032E00023D1407813464006E1B2000E4A46E0473B
:1032F0000546D8F80000016A0520884717E000BF9E
:10330000D8F8003009EB0602E1B25878DD694006D2
:10331000000E3B46A8470546D8F80000641CA4B23E
:10332000016A01208847761CF6B2BE42E8D30DB18F
:103330006FF001052846BDE8F0870000100000206E
:103340001A4808B5006828B3006A18B300F05AFCA0
:1033500000281ED100F0CCFC00281AD1FFF78AFF0C
:10336000002816D18DF80000012269460220FFF7DF
:1033700009FF9DF80010C1F343018DF800100129E9
:103380000BD002290CD003290DD0072901D16FF0F1
:10339000080008BD4FF0FF3008BD6FF0050008BD04
:1033A0006FF0060008BD6FF0070008BD1000002098
:1033B00038B500240D4DB6208DF80000286838B1CE
:1033C000016A29B1012088472868807818B109E08E
:1033D0004FF0FF3408E0012269467F20FFF7D2FE5C
:1033E000040001D100F096F9204638BD10000020FD
:1033F0007CB50D46044600F0F5FB4FF0FF3608B1F2
:1034000030467CBD00F0EEFB0028F9D1012201A975
:103410007720FFF7B7FE70B961799DF804000122AB
:1034200061F3C710217961F386108DF8040001A9BA
:103430007720FFF733FF0028E3D101226946692096
:10344000FFF7A0FE21789DF80020002861F3861286
:10345000617861F30512A17861F38302E17861F389
:1034600001028DF80020CCD1012269466920FFF7C6
:1034700015FF0028C5D1284600F08CFC7CBD00005B
:103480001CB5A0208DF80400012269466A20FFF7D0
:1034900079FE040026D19DF80000012240F00200D0
:1034A0008DF8000069466A20FFF7F8FE040019D184
:1034B000012201A97E20FFF7F1FE040012D10122B2
:1034C00069461B20FFF75EFE04000BD19DF800004B
:1034D000C0F300108DF8000020B903480068016AAD
:1034E0001920884720461CBD1000002000B589B077
:1034F00005A8FFF705FE1EA000F08AFCBDF9180024
:10350000BDF91C20BDF91A108DE807009DF9163091
:103510009DF915209DF9141019A000F079FC25A043
:1035200000F076FC05A903A8FFF762FF05A8FFF7E6
:10353000E7FDFFF7A5FFBDF91800BDF91C20BDF997
:103540001A108DE807009DF916309DF915209DF998
:1035500014101EA000F05CFC9DF80F309DF80E20AA
:103560009DF80D1026A000F053FC09B000BD00002E
:10357000626D693136303A206F66667365740A0091
:103580006E6F2063616C696272653A2061783A25DA
:10359000640961793A256409617A3A256409677892
:1035A0003A25640967793A256409677A3A25640AF5
:1035B00000000000626D693136303A2063616C6949
:1035C00062726174696E672E2E0A000063616C6915
:1035D000627265206F66667365742061783A25644F
:1035E0000961793A256409617A3A25640967783A6C
:1035F00025640967793A256409677A3A25640A00DF
:10360000666F6320636F6E66673A20617825640990
:1036100061793A256409617A3A25640A000000005C
:1036200070B50446014602224020FFF7ABFD00289A
:1036300031D11949001F0B685A790C2A2BD85B7AB3
:103640009A4206D0237802F00F0223F00F031A43A8
:1036500022700B68DA79072A1DD8DB7A9A4207D0E4
:103660002378702523F0700305EA02121A432270B2
:103670000B680022641C99790C290AD8987A814237
:1036800008D0207801F00F0120F00F0001432170D5
:1036900000E00246104670BD1000002070B50446E0
:1036A000014602224220FFF76DFD00282ED1184965
:1036B000001F0B685A7B0D2A28D85B7C9A4206D0E3
:1036C000237802F00F0223F00F031A4322700A68D6
:1036D000D27B022A1AD82378302523F0300305EA5A
:1036E00002121A4304F8012B0B680022997B04296B
:1036F0000AD8987C814208D0207801F0070120F098
:1037000007000143217000E00246104670BD000032
:10371000100000200A480221082200681023C1710D
:103720004271037103238371C173427314210173C6
:103730000021817341688160C168016170470000A8
:1037400010000020FEB500260C460546821D00969E
:103750000196694612200296FFF714FD08B1B01ECB
:10376000FEBD9DF800109DF80120032D41EA0221C5
:1037700021809DF802109DF8032041EA022161801A
:103780009DF804209DF8051042EA0121A18001D096
:10379000A660FEBD9DF807109DF806200B029DF85F
:1037A000081043EA01411143A160FEBD2DE9FF412C
:1037B000002714460D46064600F10C0200970197BB
:1037C000029769460C200397FFF7DCFC18B1B81E7E
:1037D00004B0BDE8F0819DF800109DF80120032E93
:1037E00041EA022121809DF802109DF8032041EA60
:1037F000022161809DF804209DF8051042EA012114
:10380000A1809DF806109DF8072041EA0221298039
:103810009DF808109DF8092041EA022169809DF871
:103820000A109DF80B2041EA0221A98002D0AF6066
:10383000A760CDE79DF80D109DF80C200B029DF8B8
:103840000E1043EA01411143A960A160C0E738B5F9
:103850000446012269461B20FFF794FC002804D18E
:103860009DF80010C1F3C001217038BD7FB500265E
:103870000C46009601960296B51E039638B100F1EB
:103880000C0269460C20FFF77DFC00B305E0062220
:1038900069460C20FFF776FC10B1284604B070BDD5
:1038A0009DF800109DF8012041EA022121809DF839
:1038B00002109DF8032041EA022161809DF8041066
:1038C0009DF8052041EA0221A180A660E6E79DF867
:1038D00000209DF8011042EA012121809DF802207C
:1038E0009DF8031042EA012161809DF804209DF8B3
:1038F000051042EA0121A1809DF80D109DF80C30C1
:103900000A029DF80E1042EA01411943A160C5E781
:103910003EB50A248DE81C000A46014601230248F0
:10392000FEF7FEFA40B23EBD1400002038B5B620C6
:103930008DF80000014601236A46D02000F06AF8A5
:1039400003469DF80020B6210DA000F061FA00208A
:103950008DF8000001236A467E21D020FFF7D8FFB2
:10396000044603469DF800207E2112A000F050FA84
:103970000CB11DA000E022A000F04AFA38BD000002
:10398000626D693136303A2057726974652D3E4157
:103990006464726573733A20307825582C20566120
:1039A0006C75653A20307825582C20537461743A30
:1039B00025640A00626D693136303A2052656164CF
:1039C0003C2D416464726573733A20307825582C1D
:1039D0002056616C75653A20307825582C20537438
:1039E00061743A25640A0000626D693136303A200C
:1039F00074657374206572726F7221200A00000072
:103A0000626D693136303A2074657374206F6B20B3
:103A10000A0000003EB50A248DE81C000A46014653
:103A200001230248FEF7A4FB40B23EBD1400002073
:103A300010B51548FFF7F0FB010004D013A000F00B
:103A4000E7F972B6FEE7104C15A0217800F0E0F916
:103A5000072060710521A1710221E17111222271FB
:103A600060730420A073E17315202073FFF768FCD6
:103A7000010004D010A000F0CBF972B6FEE7BDE85B
:103A80001040FFF733BD0000AC000020626D6931CB
:103A900036303A206572726F722025640A00000089
:103AA000626D693136303A20696E697420616464F0
:103AB0007220307825580A00626D693136303A201C
:103AC000636F6E666967206572726F722025640A83
:103AD000000000008CB0FEF719FCFFF7FBF9FFF7C0
:103AE000B3F92C482A49002401602B49C0E901148C
:103AF0004FF48041C0E9034144618461C4610462C0
:103B0000FEF74AF908B172B6FEE72248234954305D
:103B100001604FF4E131C0E901140C21C460C0E937
:103B200004418461C461FEF7E3FE08B172B6FEE7AA
:103B30001BA000F06DF9FFF7F9FE16481C499830FC
:103B4000C1611C4981611C490162682141700121E8
:103B50008170FFF76DFF002408AA05A90720FFF771
:103B600031FBBDF91800BDF92430BDF92220BDF9A3
:103B700020108DE80F00BDF91630BDF91420214644
:103B80000EA000F045F9C820FDF7F8FF641CE3E73C
:103B90000054004014000020A086010000380140BD
:103BA0007374617274206D63752E2E0A000000001C
:103BB000153A0008113900087D1B000825640961C9
:103BC000783A25640961793A256409617A3A25646D
:103BD0000967783A25640967793A256409677A3A6A
:103BE00025640A000648006838B1816929B1C169B5
:103BF00019B1006A08B1002070474FF0FF307047DC
:103C00001000002038B5002000906846FFF708FD3E
:103C1000002817D1012269464020FFF73FFB00280A
:103C200010D1094C0122206841794172C179C172D9
:103C300041200DF10101FFF731FB002802D121687D
:103C40008A798A7238BD0000100000207CB5274DAB
:103C500000248DF80040296822460879A0F110035D
:103C6000022B3FD8097A88423ED06C46019201224D
:103C700021464020FFF786FA80B92868007912288B
:103C80009DF800000DD001061AD520F080008DF8B7
:103C90000000012221464020FFF700FB04000FD066
:103CA00022E040F080008DF80000012221464020F3
:103CB000FFF7F4FA0028F1D1022201A95820EBE71E
:103CC000296801227E20091DFFF7E8FA04462868CA
:103CD000017A102902D1016A0520884728680179F4
:103CE000017201E06FF00C0420467CBD1000002042
:103CF00038B5002000906846FFF7D0FC002817D1A7
:103D0000012269464220FFF7C9FA002810D1094C68
:103D100001222068417B4174C17BC17443200DF1B5
:103D20000101FFF7BBFA002802D121688A7B8A745F
:103D300038BD00001000002070B5154C002521682A
:103D4000087B142807D0152805D0172803D06FF05A
:103D50000C05284670BD0A7C9042FAD001227E20D4
:103D60000C31FFF79BFA05462068017C142902D02C
:103D7000172903D008E0016A502004E0017B1529CF
:103D800002D1016A0A2088472068017B0174E0E7BC
:103D90001000002030B587B0054601208DF80000E6
:103DA00003208DF818000024012206A97E20FFF7C9
:103DB00075FA00281CD16846FFF749FD68B99DF8DF
:103DC000000001281BD011480068016A19208847AB
:103DD0006846FFF73CFD641CE4B29DF80010012921
:103DE00001D00B2CEFD308B9012903D06FF00A00E2
:103DF00007B030BD2846FFF783F90028F8D1142218
:103E000001A90C20FFF7BEF9F2E700001000002026
:103E10000FB40A4810B503AA0299FCF745FA0749FE
:103E20000A236322A1F16C00FEF7CCFD6321034855
:103E3000FCF74CFA10BC5DF814FB0000D400002025
:103E400010B500290AD00878002807D00548784422
:103E5000FDF782FA002801D0002010BD0248784406
:103E600010BD0000860100007E01000010B5002991
:103E70000AD00878002807D005487844FDF76CFA86
:103E8000002801D0002010BD0248784410BD000079
:103E9000760100006E010000FCF76BBEFCF7A0BFCE
:103EA00000000000000000000102030406070809EA
:103EB00000000000010203040000000000000000F8
:103EC0003031323334353637383941424344454650
:103ED000403058003031323334353637383961624A
:103EE000636465664030780004000008000000004C
:103EF000000000020001000010303132333435364A
:103F00003738396162636465667870003031323306
:103F1000343536373839414243444546585000001D
:103F200002400000000000A000000000054000006A
:103F3000000000C8000000000C4000000000409C91
:103F400000000000194000000020BCBE000000007E
:103F500034400000BFC91B8E00000004B5400000C3
:103F6000504BCFD06607E2CF010000006C4100004B
:103F70003E8251AADFEEA73401000000D9420000C2
:103F8000DCB5A0E23A301F97FFFFFFFFB445000009
:103F9000FD25A0C8E9A3C14FFFFFFFFFFF3F0000C1
:103FA0000000008000000000FF3F000000000080D3
:103FB0000000000000410008000000201400000084
:103FC0005C01000814410008140000208407000070
:103FD000780100081C00000043000000F8FFFFFF0C
:103FE0000C0000000E0000000F0000002E0000007A
:103FF0001001000043000000F8FFFFFF00404040B8
:1040000040404040404041414141414040404040AB
:104010004040404040404040404040404005020257
:104020000202020202020202020202020220202016
:104030002020202020202002020202020202909072
:104040009090909010101010101010101010101070
:1040500010101010101010100202020202028888C4
:1040600088888888080808080808080808080808D0
:1040700008080808080808080202020240000000B8
:104080000000000000000000000000000000000030
:104090000000000000000000000000000000000020
:1040A0000000000000000000000000000000000010
:1040B0000000000000000000000000000000000000
:1040C00000000000000000000000000000000000F0
:1040D00000000000000000000000000000000000E0
:1040E00000000000000000000000000000000000D0
:1040F00000000000000000000000000000000000C0
:104100000100000010000000000000000024F40086
:0441100000000000AB
:0400000508000121CD
:00000001FF
